:020000040800F2
:100000000000012099110008510E0008530E00084D
:10001000550E0008570E0008590E00080000000099
:100020000000000000000000000000005B0E00085F
:100030005D0E0008000000005F0E0008610E000861
:10004000E9110008E9110008E9110008E9110008A8
:10005000E9110008E9110008E9110008E911000898
:10006000E9110008E9110008E9110008E911000888
:10007000E9110008E9110008E9110008E911000878
:10008000E9110008E9110008E9110008000000006A
:10009000000000000000000000000000E91100085E
:1000A000E9110008E9110008E9110008650E0008CF
:1000B000E9110008E9110008E9110008E911000838
:1000C000E9110008E9110008E9110008E911000828
:1000D000E9110008E9110008E9110008000000001A
:1000E000E9110008E9110008E9110008000000000A
:1000F000000000000000000000000000E9110008FE
:1001000000000000E9110008E9110008E9110008E9
:1001100000000000000000000000000000000000DF
:10012000E9110008E9110008E9110008E9110008C7
:10013000E9110008000000000000000000000000BD
:10014000000000000000000000000000E9110008AD
:10015000E9110008E9110008E9110008E911000897
:10016000E9110008E911000800000000000000008B
:10017000000000000000000000000000000000007F
:1001800000000000E911000800000000000000006D
:04019000E911000869
:1001A00010B5054C237833B9044B13B10448AFF3B1
:1001B00000800123237010BD5C00002000000000BF
:1001C0001C3A000808B5034B1BB103490348AFF3C1
:1001D000008008BD00000000600000201C3A0008FC
:1001E000034613F8012B002AFBD1181A0138704777
:1001F00001F0FF01102A2BDB10F0070F08D010F8D8
:10020000013B013A8B422DD010F0070F42B3F6D1DB
:10021000F0B441EA012141EA014122F007047FF0F4
:1002200000070023F0E80256083C85EA010586EA4B
:10023000010685FA47F5A3FA87F586FA47F6A5FA87
:1002400087F68EB9EED1F0BC01F0FF0102F0070293
:1002500032B110F8013B013A83EA010313B1F8D13E
:100260000020704701387047002D06BF354603381F
:10027000073815F0010F07D1013015F4807F02BF58
:10028000013015F4C03F0130F0BC0138704700BFA9
:1002900070B54FF0FF0C4CF4E06C1CEA11541DBF1C
:1002A0001CEA135594EA0C0F95EA0C0F00F0DEF8E7
:1002B0002C4481EA030621EA4C5123EA4C5350EACC
:1002C000013518BF52EA033541F4801143F480131D
:1002D00038D0A0FB02CE4FF00005E1FB02E506F0AE
:1002E0000042E0FB03E54FF00006E1FB03569CF003
:1002F000000F18BF4EF0010EA4F1FF04B6F5007F09
:1003000064F5407404D25FEA4E0E6D4146EB06067A
:1003100042EAC62141EA55514FEAC52040EA5E5003
:100320004FEACE2EB4F1FD0C88BFBCF5E06F1ED8AD
:10033000BEF1004F08BF5FEA500E50F1000041EBE4
:10034000045170BD06F0004646EA010140EA020091
:1003500081EA0301B4EB5C04C2BFD4EB0C0541EAB3
:10036000045170BD41F480114FF0000E013C00F3C8
:10037000AB8014F1360FDEBF002001F0004170BDEC
:10038000C4F10004203C35DA0C341BDC04F1140405
:10039000C4F1200500FA05F320FA04F001FA05F291
:1003A00040EA020001F0004221F0004110EBD3705E
:1003B00021FA04F642EB06015EEA430E08BF20EA8A
:1003C000D37070BDC4F10C04C4F1200500FA04F32D
:1003D00020FA05F001FA04F240EA020001F00041BF
:1003E00010EBD37041F100015EEA430E08BF20EA32
:1003F000D37070BDC4F1200500FA05F24EEA020E7A
:1004000020FA04F301FA05F243EA020321FA04F0A8
:1004100001F0004121FA04F220EA020000EBD3705F
:100420005EEA430E08BF20EAD37070BD94F0000F5F
:100430000FD101F00046400041EB010111F4801F93
:1004400008BF013CF7D041EA060195F0000F18BF44
:10045000704703F00046520043EB030313F4801F80
:1004600008BF013DF7D043EA0603704794EA0C0F3A
:100470000CEA135518BF95EA0C0F0CD050EA410650
:1004800018BF52EA4306D1D181EA030101F00041CD
:100490004FF0000070BD50EA410606BF10461946F5
:1004A00052EA430619D094EA0C0F02D150EA013601
:1004B00013D195EA0C0F05D152EA03361CBF104642
:1004C00019460AD181EA030101F0004141F0FE41E1
:1004D00041F470014FF0000070BD41F0FE4141F465
:1004E000780170BD81F0004102E000BF83F000435D
:1004F00030B54FEA41044FEA430594EA050F08BFBF
:1005000090EA020F1FBF54EA000C55EA020C7FEA82
:10051000645C7FEA655C00F0E2804FEA5454D4EBFF
:100520005555B8BF6D420CDD2C4480EA020281EAC9
:10053000030382EA000083EA010180EA020281EA01
:100540000303362D88BF30BD11F0004F4FEA013153
:100550004FF4801C4CEA113102D0404261EB410162
:1005600013F0004F4FEA03334CEA133302D05242E8
:1005700063EB430394EA050F00F0A780A4F10104A4
:10058000D5F1200E0DDB02FA0EFC22FA05F28018DE
:1005900041F1000103FA0EF2801843FA05F35941C4
:1005A0000EE0A5F120050EF1200E012A03FA0EFC43
:1005B00028BF4CF0020C43FA05F3C01851EBE3716D
:1005C00001F0004507D54FF0000EDCF1000C7EEB8A
:1005D00000006EEB0101B1F5801F1BD3B1F5001FC8
:1005E0000CD349085FEA30004FEA3C0C04F10104E7
:1005F0004FEA445212F5800F80F09A80BCF1004F10
:1006000008BF5FEA500C50F1000041EB045141EA91
:10061000050130BD5FEA4C0C404141EB0101013C5A
:1006200028BFB1F5801FE9D291F0000F04BF014649
:100630000020B1FA81F308BF2033A3F10B03B3F11B
:1006400020020CDA0C3208DD02F1140CC2F10C02AB
:1006500001FA0CF021FA02F10CE002F11402D8BF09
:10066000C2F1200C01FA02F120FA0CFCDCBF41EAD5
:100670000C019040E41AA2BF01EB0451294330BDA4
:100680006FEA04041F3C1CDA0C340EDC04F1140481
:10069000C4F1200220FA04F001FA02F340EA030058
:1006A00021FA04F345EA030130BDC4F10C04C4F19E
:1006B000200220FA02F001FA04F340EA030029467E
:1006C00030BD21FA04F0294630BD94F0000F83F4C8
:1006D000801306BF81F480110134013D4EE77FEAAB
:1006E000645C18BF7FEA655C29D094EA050F08BFF7
:1006F00090EA020F05D054EA000C04BF19461046D8
:1007000030BD91EA030F1EBF0021002030BD5FEA1B
:10071000545C05D14000494128BF41F0004130BD43
:1007200014F580043CBF01F5801130BD01F0004597
:1007300045F0FE4141F470014FF0000030BD7FEA0A
:10074000645C1ABF194610467FEA655C1CBF0B4605
:10075000024650EA013406BF52EA033591EA030F1C
:1007600041F4002130BD00BF90F0000F04BF002114
:10077000704730B54FF4806404F132044FF0000547
:100780004FF0000150E700BF90F0000F04BF0021C0
:10079000704730B54FF4806404F1320410F0004526
:1007A00048BF40424FF000013EE700BF42004FEA21
:1007B000E2014FEA31014FEA02701FBF12F07F439E
:1007C00093F07F4F81F06051704732F07F4208BF55
:1007D000704793F07F4F04BF41F40021704730B55C
:1007E0004FF4607401F0004521F000411CE700BFA8
:1007F00050EA010208BF704730B54FF000050AE02B
:1008000050EA010208BF704730B511F0004502D52B
:10081000404261EB41014FF4806404F132045FEA2D
:10082000915C3FF4D8AE4FF003025FEADC0C18BFD6
:1008300003325FEADC0C18BF033202EBDC02C2F1C8
:10084000200300FA03FC20FA02F001FA03FE40EA5A
:100850000E0021FA02F11444BDE600BF4A0011D295
:1008600012F5001211D20DD56FF47873B3EB62520A
:100870000ED44FEAC12343F0004343EA505323FA16
:1008800002F070474FF00000704750EA013002D18B
:100890004FF0FF3070474FF00000704753B94AB92E
:1008A000002908BF00281CBF4FF0FF314FF0FF3078
:1008B00000F06AB9ADF1080C6DE904CE00F006F85D
:1008C000DDF804E0DDE9022304B070472DE9F047CC
:1008D000089D0C46002B4ED194468C458646B2FAB4
:1008E00082F262D94AB1C2F12003914020FA03F3A7
:1008F0000CFA02FC194300FA02FE4FEA1C471FFAE9
:100900008CF6B1FBF7F44FEA1E4307FB141143EAE0
:10091000014304FB06F199420AD91CEB030304F1DD
:10092000FF3080F01281994240F20F81023C634413
:10093000591A1FFA8EF3B1FBF7F007FB101143EAC7
:10094000014300FB06F69E420AD91CEB030300F1AB
:10095000FF3180F0FC809E4240F2F980634402380F
:100960009B1B40EA044000211DB1D3400022C5E991
:100970000032BDE8F0878B4205D90DB1C5E9000111
:1009800000210846F5E7B3FA83F1002946D1A342D6
:1009900002D39042C0F0F080861A64EB030301207A
:1009A000002DE6D0C5E90063E3E7002A40F090801F
:1009B000A1EB0C044FEA1C481FFA8CF70121B4FB91
:1009C000F8F64FEA1E4308FB164443EA044307FBCC
:1009D00006F0984208D91CEB030306F1FF3402D25B
:1009E000984200F2CD8026461C1A1FFA8EF3B4FB03
:1009F000F8F008FB104443EA044300FB07F79F426A
:100A000008D91CEB030300F1FF3402D29F4200F22D
:100A1000B0802046DB1B40EA0640A5E7C1F1200676
:100A20008B4022FA06F71F4320FA06FC04FA01F372
:100A300043EA0C03F44000FA01F8380C4FEA13497A
:100A4000B4FBF0FE1FFA87FC00FB1E4449EA044495
:100A50000EFB0CF9A14502FA01F20AD93C190EF17C
:100A6000FF3A80F08480A14540F28180AEF1020E11
:100A70003C44A4EB09041FFA83F9B4FBF0F300FB38
:100A8000134449EA044403FB0CFCA44507D93C1970
:100A900003F1FF3067D2A44565D9023B3C4443EAE9
:100AA0000E40A0FB0293A4EB0C049C42CE469C4655
:100AB00051D34ED055B1B8EB0E0364EB0C0404FADD
:100AC00006F6CB401E43CC40C5E90064002150E748
:100AD000C2F1200320FA03F10CFA02FC24FA03F31A
:100AE00094400C434FEA1C4800FA02FE1FFA8CF7B0
:100AF000B3FBF8F008FB1031230C43EA014300FB81
:100B000007F1994208D91CEB030300F1FF362CD200
:100B100099422AD9023863445B1AA4B2B3FBF8F1B4
:100B200008FB113344EA034401FB07F3A34208D94D
:100B30001CEB040401F1FF3613D2A34211D9023990
:100B40006444E41A41EA004139E70446F0E6084605
:100B500006E7C845AED2B9EB020E63EB070C0138CD
:100B6000A8E73146EDE7034699E73046D4E7D64695
:100B70007FE7634402384DE70646234608460FE701
:100B8000023E634430E700BF704700BF2DE9F041EB
:100B900014228AB00DEB0200002102F0BFFA0024FB
:100BA0002F4B01941A6BDFF8C4802E4F2E4E42F06B
:100BB00004021A631A6B02F004020192019A029471
:100BC0001A6B42F080021A631A6B02F080020292E2
:100BD000029A03941A6B42F001021A631A6B02F034
:100BE00001020392039A04941A6B42F002021A6300
:100BF0001B6B03F002030493224640464FF400515E
:100C0000049B00F021FF38460122042100F01CFF64
:100C10002246304641F2070100F016FF01254FF44D
:100C2000005305A94046CDE90535CDE9074400F05C
:100C300045FE042305A93846CDE90535CDE907442D
:100C400000F03CFE41F2070305A93046CDE9053529
:100C5000CDE9074400F032FE0AB0BDE8F08100BFE4
:100C60000038024000000240000402400008024038
:100C700008B50B480B4A0C4BC0E9002300234FF486
:100C80008042C0E90233C0E90423C0E906330362AD
:100C900000F0D0FF18B1BDE8084000F0BBB808BDB7
:100CA0007800002000540040A086010030B50446C2
:100CB00089B01422002103A802F030FA2268134BF5
:100CC0009A4221D1124C134800250195236B43F021
:100CD00002032363236B03F002030193019BC022F1
:100CE0001223CDE9032303210423CDE9061303A92D
:100CF00000F0E4FD0295236C43F400132364236C9D
:100D000003F400130293029B09B030BD005400406D
:100D1000003802400004024010B594B014220021B3
:100D200009A802F0FBF91422002103A802F0F6F949
:100D30001F4B00220192196C41F0805119641B6C09
:100D40001C4903F080530193019B02920B6823F42A
:100D5000404343F400430B600B6803F440430293A9
:100D6000029B012110230820CDE90B1354230224F8
:100D7000CDE91003042308A8CDE90E42089412948B
:100D8000139301F0D9F808B172B6FEE70F23CDE94D
:100D900003344FF48053CDE906300590214603A873
:100DA00001F0A6FA08B172B6FEE714B010BD00BF9C
:100DB00000380240007000401FB500F0D9FCFFF77A
:100DC000ABFFFFF7E3FEFFF753FF00F093F900F0EE
:100DD00079F800F03FF94FF47A7101A800F005FAB4
:100DE00000F0ACFB0A4800F01BFA00F057FB01A82A
:100DF00000F0FFF940B100F013FC044600F016FCCF
:100E00000146204600F078FB00F09EFBEFE700BFB4
:100E1000343A000872B6FEE782B00C4B0021009114
:100E20005A6C42F480425A645A6C02F48042009236
:100E3000009A01911A6C42F080521A641B6C03F004
:100E400080530193019B02B0704700BF00380240FD
:100E5000FEE7FEE7FEE7FEE7FEE7704770477047F4
:100E600000F0A0BC014801F08DBB00BF18010020BC
:100E70000B4A116810B5034609B90A491160106898
:100E800009490A4C0344091B8B4206D902F04EF96A
:100E90000C2303604FF0FF3010BD1360FCE700BF70
:100EA000CC000020380300200000012000040000D6
:100EB000034AD2F8883043F47003C2F88830704790
:100EC00000ED00E010B58AB000241022002102A835
:100ED00002F024F91022214606A8CDE9004402F0D0
:100EE0001DF91D481D4A84605323C0E900234FF6B5
:100EF000FE73C0E90334C0E9054401F02BFC08B1DE
:100F0000FFF788FF4FF480531348029302A901F0C2
:100F1000F8FD08B1FFF77EFF0F4801F073FC08B140
:100F2000FFF778FF00240C486946CDE9004401F042
:100F300061FF08B1FFF76EFF012307480694002206
:100F400006A9CDE90734099401F03EFD08B1FFF789
:100F500061FF0AB010BD00BF180100200000014071
:100F600010B5044688B01422002103A802F0D6F878
:100F700023681F4A93422AD11E4B1F480024009425
:100F80005A6C42F001025A645A6C02F0010200925B
:100F9000009A01941A6B42F001021A631B6B03F072
:100FA000010301934FF48072019B0223CDE90323D7
:100FB00003A90123079300F081FC1B202246214650
:100FC00000F028FC1B2000F057FC08B010BD0B4AB5
:100FD0009342FAD100230293064B1A6C42F00202AC
:100FE0001A641B6C03F002030293029BEDE700BF3F
:100FF00000000140003802400000024000040040B0
:1010000010B5044686B01422002101A802F086F82B
:1010100022680D4B9A4214D1002300930B4B0C48CD
:101020001A6B42F001021A631B6B03F00103009379
:10103000009B4022022301A9CDE90123059300F082
:101040003DFC06B010BD00BF000400400038024067
:101050000000024010B58EB01022002103A802F05B
:101060005DF800241C220DEB02002146CDE901446D
:1010700002F054F81D481E4A84605323C0E900233F
:1010800044F62063C0E90334846101F063FB08B1D6
:10109000FFF7C0FE4FF480531448039303A901F0F7
:1010A00030FD08B1FFF7B6FE104801F07FFB08B134
:1010B000FFF7B0FE00240D4801A9CDE9014401F07D
:1010C00099FE08B1FFF7A6FE6023084809940022A4
:1010D00007A9CDE907340B9401F0ECFB08B1FFF749
:1010E00099FE0248FFF78CFF0EB010BDD000002023
:1010F000000400400B480C4A08B54FF41653C0E9F1
:10110000002300230C22C0E90233C0E90523036158
:10111000C36101F065FF18B1BDE80840FFF77ABE72
:1011200008BD00BF600100200010014010B504465A
:1011300088B01422002103A801F0F0FF2268144BAC
:101140009A4223D103F59433002101915A6C11483E
:1011500042F010025A645A6C02F010020192019A95
:1011600002911A6B42F001021A631B6B03F0010338
:101170000293029B4FF4C06202230321CDE90323B3
:101180000723CDE9061303A900F098FB08B010BDB2
:101190000010014000000240DFF834D0FFF788FE65
:1011A0000C480D490D4A002302E0D458C4500433C2
:1011B000C4188C42F9D30A4A0A4C002301E0136098
:1011C0000432A242FBD301F0B7FFFFF7F5FD7047F1
:1011D00000000120000000205C000020E83A000828
:1011E0005C00002038030020FEE70023416003720A
:1011F000704738B5057A044655B100F0DFFA236828
:10120000C01A6368984208D300232372284638BD69
:1012100000F0D4FA0123206023720025F6E70000D5
:1012200010B50446FEF7DCFF214682B2BDE810404F
:1012300002484FF0FF3301F002BF00BF6001002001
:101240000148002101F05CBD180100202DE9F041AA
:101250001F4CDFF888801F4F2D220021204601F00F
:101260005DFF2646002501224FF48051404600F0E4
:10127000EBFB3B6800225A625A6A092AFCD9002219
:101280004FF48051404600F0DFFB3A68D36843F0EA
:101290000203D360104B1B7806F8013B0520013593
:1012A00000F092FA2D2DDED12C2223460021187851
:1012B00013F8015F0131A84284BF03F8015C187084
:1012C0008A42F4D1013AF0D1A07DBDE8F08100BF9F
:1012D000A801002018010020D501002000040240D0
:1012E000F8B5077F012F044610D1254D254E2978EA
:1012F00069B901F02DF9236830601A6A2F7022F065
:101300000A021A621A6A42F002021A62F8BD002149
:1013100001F01EF91C4B24681860002363623368D7
:101320001A4A984220D9C01A10601068FFF71CFAB8
:1013300011A3D3E90023FEF7ABFF154B0022FEF704
:10134000A7FFFFF78BFA134B187000232B70236A4B
:1013500023F00A032362236A23620F4B1A68D368BF
:1013600023F00203D360D1E73FBFC3F57F43FF33D0
:101370001B181360D9E700BF9CC420B07268A13F5E
:10138000D6010020E0010020DC010020D80100206F
:101390000000E03FD5010020180100201FB500F03B
:1013A000F003000143F00C02C0B243F008038DF8D3
:1013B0000D3040F00C038DF80E3040F0080064232F
:1013C0008DF80C208DF80F00009303AA04234E2102
:1013D000024800F0D7FC05B05DF804FB780000205F
:1013E00008B5322000F0F0F93020FFF7D7FF0520D4
:1013F00000F0EAF93020FFF7D1FF012000F0E4F916
:101400003020FFF7CBFF0A2000F0DEF92020FFF7A5
:10141000C5FF0A2000F0D8F92820FFF7BFFF012000
:1014200000F0D2F90820FFF7B9FF012000F0CCF955
:101430000120FFF7B3FF012000F0C6F9012000F002
:10144000C3F90620FFF7AAFF012000F0BDF9BDE8AF
:1014500008400C20FFF7A2BF1FB500F0F003000109
:1014600043F00D02C0B243F009038DF80D3040F097
:101470000D038DF80E3040F0090064238DF80C2028
:101480008DF80F00009303AA04234E21024800F0B8
:1014900079FC05B05DF804FB7800002010B58020D1
:1014A000FFF77CFF46242020FFF7D6FF013CFAD14E
:1014B00010BD20B1012805D0C8B2FFF76FBF41F0C1
:1014C0008001F9E741F0C001F6E710B5441E14F8B9
:1014D000010F00B910BDFFF7BFFFF8E71FB50246C7
:1014E000044901A801F0FAFD01A8FFF7EEFF05B0DD
:1014F0005DF804FB5D3A000838B50D460446FFF779
:10150000CDFF8020FFF74AFF0948FFF7DEFF28469E
:10151000FFF7E4FFC020FFF741FF0648FFF7D5FFC4
:101520002046FFF7DBFFBDE838400348FFF7CDBF9B
:10153000603A0008693A0008723A0008014B00223C
:101540001A707047E801002010B52D4C2378042B49
:1015500052D8DFE803F0031E2E3D4E00FFF740FF98
:10156000FFF76EFE00F0C4F8264B274800221A70E1
:10157000264B1A70264B07211970264B0A21197029
:10158000114600F0BBF82448FFF74AFE0123237000
:1015900010BD1E491B4B09781A7841B1033AD2B2EB
:1015A00019481A70002100F0A9F80223EFE703326E
:1015B000F5E7FFF74BFE174B1870154B1B7883426E
:1015C0001CD816480022022100F03EFA0323DEE771
:1015D0000C4B1B78B42B03D10C4B01221A70D5E7AE
:1015E00013B90A4A1370D1E7B42BCFD9FFF712FC15
:1015F000CCE700F021F8D8E70023C8E70423C6E7CA
:10160000E8010020E7010020D0000020E6010020D2
:10161000E4010020E5010020753A000800040240C2
:10162000014B1878704700BFE5010020014B187886
:10163000704700BFE701002010B5294C0122204669
:10164000022100F001FA01222046042100F0FCF9F9
:10165000FFF724FF00210846FFF72BFF2148FFF783
:1016600034FF00210120FFF724FF1F48FFF72DFF63
:101670001E48FFF7D5FD4FF4FA7000F0A5F80022E0
:101680000421204600F0E0F94FF4FA7000F09CF8D5
:1016900001220421204600F0D7F94FF4FA7000F03F
:1016A00093F800220421204600F0CEF94FF4FA709E
:1016B00000F08AF801220421204600F0C5F94FF419
:1016C000FA7000F081F820460022042100F0BCF9F5
:1016D0004FF4FA7000F078F8BDE81040FFF7DEBE76
:1016E000000402407D3A0008843A00088B3A000862
:1016F0000148002101F002BBD000002040F26C73D1
:101700005A43B423B2FBF3F2036802F5E17209B95C
:101710005A637047042901D19A63704708290CBFA6
:10172000DA631A647047000038B50E4B1A784FF42C
:101730007A73B3FBF2F30C4A05461068B0FBF3F082
:1017400000F0A8F8044658B90F2D09D802462946DA
:101750004FF0FF3000F05EF8044B20461D6038BDAE
:101760000120FCE704000020000000200800002009
:1017700008B50B4B1A6842F400721A601A6842F4FA
:1017800080621A601A6842F480721A60032000F0C6
:101790002FF80F20FFF7C8FFFFF73EFB002008BD22
:1017A000003C0240034A044B11681B780B44136051
:1017B000704700BFEC01002004000020014B1868B6
:1017C000704700BFEC01002038B50446FFF7F6FF74
:1017D000631C1CBF054B1B78054618BFE418FFF7B8
:1017E000EDFF431BA342FAD338BD00BF0400002025
:1017F0000749CA6822F4E0620302120403F4E063BA
:10180000120C134343F0BF6343F40033CB607047C3
:1018100000ED00E0164B30B5DC68C4F30224C4F1DF
:101820000703251D042B28BF0423062D4FF0FF3589
:101830008CBF033C002405FA03F321EA0303A5400F
:1018400022EA0502A340002843EA0203ACBF00F1EC
:101850006040084A4FEA0313B8BF00F00F00DBB244
:10186000AABF00F56140135480F8003330BD00BFBB
:1018700000ED00E014ED00E0002807DB044A410918
:10188000012300F01F00834042F82130704700BF61
:1018900000E100E00138B0F1807F0BD24FF0E0238F
:1018A000054A5861F02182F8231000200722986130
:1018B0001A6170470120704700ED00E02DE9F74FF5
:1018C000DFF880915D4A00230D6801249C4004EA02
:1018D0000506AC4340F0A3804D68032705F00304E0
:1018E0004FEA430807FA08FC671E012F6FEA0C0C49
:1018F00034D8876807EA0C0ECF6807FA08F747EA7A
:101900000E078760476827EA060EC5F300179F4059
:1019100047EA0E074760C76807EA0C0E8F6807FAA8
:1019200008F747EA0E07022CC76019D14FEAD30A1D
:1019300000EB8A0A03F0070BDAF820704FEA8B0BF2
:101940004FF00F0E0EFA0BFE27EA0E0E0F6907FA84
:101950000BF747EA0E07CAF8207001E0032CDAD132
:10196000076804FA08F407EA0C073C4315F4403F03
:10197000046054D000240194D9F8444044F48044D5
:10198000C9F84440D9F8444023F0030707F18047E1
:1019900004F4804407F59C37019403F0030C019C88
:1019A000D7F808E04FEA8C0C0F2404FA0CF42EEA66
:1019B000040E234CA04239D004F58064A04237D0F5
:1019C00004F58064A04235D004F58064A04233D091
:1019D00004F58064A04214BF0724042404FA0CF424
:1019E00044EA0E04BC609468F74315F4801F0CBFF2
:1019F0003C4034439460D46815F4001F0CBF3C4055
:101A00003443D460546815F4003F0CBF3C40344369
:101A100054601468ED0354BF3C40344314600133F8
:101A2000102B7FF451AF03B0BDE8F08F0024D5E751
:101A30000124D3E70224D1E70324CFE7003C01408F
:101A400000000240003802400AB181617047090479
:101A5000FBE701684B6913F480634FF0000210D07C
:101A60006FF480634B612023026380F83D3080F87F
:101A70003E20036C80F83C2043F004030364012003
:101A80007047184670472DE9F84606460F469146BE
:101A90001D464FEA114A3368BAF1010F0CBF5C6969
:101AA0009C6927EA0404A4B2B4FA84F46409A14549
:101AB00001D0002025E06A1CEED0FFF77FFE089BD6
:101AC000C01AA84201D8002DE5D13368BAF1010F40
:101AD0000CBF5B699B6927EA03039BB2B3FA83F3EC
:101AE0005B099945D7D100232022336386F83D2036
:101AF00086F83E30326C86F83C3042F02002326488
:101B00000120BDE8F8862DE9F04104460F4616464F
:101B100098462568686927EA000080B2C0B16B6901
:101B20005A0517D52B6843F400732B606FF480635C
:101B30006B6120220023236384F83D2084F83E302B
:101B4000236C43F004032364002384F83C30012019
:101B5000BDE8F081731CDDD0FFF730FEA0EB08007C
:101B6000B04201D8002ED4D123685A6927EA020274
:101B700092B2002ACDD000232022236384F83D2096
:101B800084F83E30236C1343DDE770B504460D4600
:101B9000164623685B691B0601D500201EE020461F
:101BA000FFF757FFC8B96A1CF3D0FFF707FE801B89
:101BB000A84201D8002DECD123685B6913F08003A3
:101BC000E7D12022236384F83D2084F83E30226C44
:101BD00084F83C3042F020022264012070BD70B5D0
:101BE00004460D46164623685B695B0701D5002055
:101BF0001EE02046FFF72DFFC8B96A1CF3D0FFF79F
:101C0000DDFD801BA84201D8002DECD123685B6963
:101C100013F00403E7D12022236384F83D2084F8E5
:101C20003E30226C84F83C3042F0200222640120D5
:101C300070BD000070B5044608B9012070BD90F871
:101C40003D3003F0FF021BB980F83C20FFF72EF86F
:101C5000242384F83D3023681A6822F001021A60B8
:101C60001A6842F400421A601A6822F400421A60AC
:101C700000F0D8FB3F4B65689D4294BF3E4B3F4B05
:101C800098428CBF00230123002BD6D12268394E05
:101C900051683B4BB0FBF3F321F03F011943B542D0
:101CA000516088BF4FF49676116A88BF734321F064
:101CB0003F0184BF4FF47A76B3FBF6F301330B4355
:101CC0001362D169431E2B4821F44F41854221F014
:101CD000FF0132D86D0040F6FC70B3FBF5F3013321
:101CE000034242D0C3F30B031943D161D4E9073057
:101CF0001168034321F0C0010B4313609168D4E9DC
:101D0000030321F40341034321F0FF010B439360DC
:101D1000D4E90530D168034321F0FF010B43D360C0
:101D2000136843F00103136000202023206484F82B
:101D30003D30206384F83E0080E7A06850B905EB91
:101D40004505B3FBF5F30133C3F30B037BB143F458
:101D50000043C9E719206843B3FBF0F30133C3F331
:101D60000B0323B143F44043BEE70423BCE7012344
:101D7000BAE700BFA08601007F841E00FF083D0077
:101D800040420F002DE9F043044685B098460C9F71
:101D90000D469146FFF712FD94F83D30202B064684
:101DA00004D00225284605B0BDE8F08300905E49C6
:101DB000192301222046FFF766FE0028F1D194F88E
:101DC0003C30012BEDD02168012384F83C300B68B6
:101DD000DA075EBF0B6843F001030B600B6823F466
:101DE00000630B60212384F83D30102384F83E30DB
:101DF00000232364A4F82A80638D23854B4BE36280
:101E0000E36AC4F82490082B04D0012B02D013F508
:101E1000803F04D10B6843F480730B6002E0236BB6
:101E2000122BF7D0002200963B464FF001112046BE
:101E3000FFF729FE226840B11368DB0501D40125B4
:101E4000B0E74FF400732364F9E72369B3F5804FDB
:101E500021D105F0FE051561354933463A46204645
:101E6000FFF751FE05460028E9D1236803905A691F
:101E700003929B690393039B238DF3B921680A683E
:101E800042F400720A60202284F83D2084F83C303D
:101E900084F83E3086E7EB1103F0060343F0F003CD
:101EA0001361244933463A462046FFF72CFE0028AA
:101EB000C5D12368EDB21D61CEE7324639462046D2
:101EC000FFF763FE40B1236C042BB8D1226813687E
:101ED00043F400731360B2E7636A20681A4612F88D
:101EE000011B01616262628D013A92B26285228DAC
:101EF000D0F814C0511E89B21CF0040F21850AD0FD
:101F000049B15978016102336362638D013B9BB231
:101F1000023A63852285324639462046FFF75FFE46
:101F20000028A9D0CFE700BF020010000000FFFF8B
:101F300002000100080001002DE9F341044640B30E
:101F40000368DE0710D423689D075BD42368190754
:101F500000F19D8023685A0700F1BD80A369002B22
:101F600040F0248100202CE08D4B9A6802F00C0296
:101F7000042A07D09A6802F00C02082A0BD15B6889
:101F8000590208D5864B1B689A03DCD56368002B81
:101F9000D9D1012015E06368814DB3F5803F13D19D
:101FA0002B6843F480332B60FFF708FC7C4E05461A
:101FB00033689B03C7D4FFF701FC401B6428F7D9A3
:101FC000032002B0BDE8F081B3F5A02F04D12B6847
:101FD00043F480232B60E3E72A6822F480322A60EE
:101FE0002A6822F480222A60002BDDD1FFF7E6FB6D
:101FF00006462B689F03A6D5FFF7E0FB801B6428ED
:10200000F7D9DDE7664B9A6812F00C0F07D09A6893
:1020100002F00C02082A11D15B685D020ED4604AFE
:102020001368990702D5E368012BB2D113682169BF
:1020300023F0F80343EAC103136087E7E268594BD2
:10204000B2B101221A60FFF7B9FB554D06462B6865
:102050009B0707D52B68226923F0F80343EAC203E4
:102060002B6073E7FFF7AAFB801B0228EFD9A7E7D5
:102070001A60FFF7A3FB4A4E054633689F077FF5BA
:1020800065AFFFF79BFB401B0228F6D998E7626912
:10209000444B82B10122C3F8802EFFF78FFB404EE4
:1020A0000546736F9B073FF555AFFFF787FB401B56
:1020B0000228F6D984E7C3F8802EFFF77FFB384E5D
:1020C0000546736F9F077FF545AFFFF777FB401B12
:1020D0000228F6D974E7324B1A6C12F0805228D1DC
:1020E00001921A6C42F080521A641B6C03F0805308
:1020F0000193019B01272C4D2B68D8051BD5A368A4
:10210000274D012B27D12B6F43F001032B67FFF7DE
:1021100055FB234E054641F28838336F9A0739D56F
:10212000002F3FF41BAF1E4A136C23F0805313643F
:1021300014E70027DFE72B6843F480732B60FFF779
:102140003DFB06462B68D905D9D4FFF737FB801B2A
:102150000228F7D934E7052B04D12B6F43F0040391
:102160002B67D0E72A6F22F001022A672A6F22F03C
:1021700004022A67002BCAD1FFF720FB41F28838FE
:1021800006462B6F9B07CBD5FFF718FB801B4045FE
:10219000F7D915E7FFF712FB401B4045BDD90FE704
:1021A000003802400000474200700040374DAA68E6
:1021B00002F00C02082A3ED0022B354B4FF00002F1
:1021C0001A662BD1FFF7FAFA06462B6899011FD43D
:1021D000D4E907321343626A43EA8213E26A43EAAC
:1021E0000263A26A5208013A43EA02436B60284B39
:1021F000264D01221A66FFF7E1FA04462B689A0180
:102200003FF5B0AEFFF7DAFA001B0228F6D9D7E6A1
:10221000FFF7D4FA801B0228D7D9D1E6FFF7CEFA10
:1022200004462B689B017FF59DAEFFF7C7FA001BA4
:102230000228F6D9C4E6012B3FF4ABAE6B68E26925
:1022400003F4800191427FF4A4AE216A03F03F02BF
:102250008A427FF49EAE616A47F6C0721A40B2EBC2
:10226000811F7FF496AEA26A520803F44031013A0E
:10227000B1EB024F7FF48DAEE26A03F07063B3EB13
:10228000026F14BF012000209BE600BF003802400F
:1022900000004742134908B58B6803F00C03042B78
:1022A0001CD0082B1CD14A684B68496813F4800382
:1022B00014BF0D480D48C1F3881118BF002302F068
:1022C0003F02A1FB0001FEF7E9FA064B5B68C3F38E
:1022D000014301335B00B0FBF3F008BD0248FCE7AB
:1022E0000248FAE70038024040787D010024F400FB
:1022F0002DE9F0410D46044610B90120BDE8F081FA
:10230000434B1A6802F007028A4228D321688F07DC
:102310002DD4C80740D43E4B1A6802F00702AA42E7
:1023200065D8226851076BD4130707D5394A21694C
:10233000936823F4604343EAC1039360FFF7AAFF65
:10234000344B354A9B68C3F30313D35CD840334BFB
:102350001860334B1868FFF7E7F90020CEE7CAB2E0
:102360001A701B6803F007038B42C6D1CEE7294BD6
:1023700011F0040F1EBF9A6842F4E0529A600E07F3
:1023800042BF9A6842F460429A609A68A06822F05C
:10239000F00202439A60BCE762681E4B012A1CD11E
:1023A0001B6813F4003FA8D01A4EB36823F0030350
:1023B0001343B360FFF702FA41F288380746B36867
:1023C000626803F00C03B3EB820FA4D0FFF7F6F9B9
:1023D000C01B4045F3D9032090E7911E01291B68DB
:1023E00002D813F0007FDEE713F0020FDBE7EAB25A
:1023F0001A701B6803F00703AB427FF47EAF90E7CF
:102400000449E0688B6823F4E05303438B608BE757
:10241000003C0240003802404D3A00080000002015
:1024200008000020044B054A9B68C3F38223D35C59
:10243000034A1068D840704700380240453A000807
:1024400000000020044B054A9B68C3F34233D35C71
:10245000034A1068D840704700380240453A0008E7
:1024600000000020036A026A22F00102026270B5D5
:10247000446882690D6822F073022A438D6823F054
:1024800002032B430A4DA8420BD1CD6823F0080369
:102490002B43D1E9055624F44074354323F004035B
:1024A0002C43446082614A684263036270BD00BF8E
:1024B00000000140036A026A22F48072026270B571
:1024C0004468C2690D6822F073022A438D6823F4C0
:1024D000007343EA05230B4DA8420DD1CD6823F4C8
:1024E000006343EA0523D1E9055624F440543543FB
:1024F00023F4806344EA05144460C2614A68C263FD
:10250000036270BD00000140036A026A22F4805237
:10251000026230B54468C2690D6822F4E64242EABC
:1025200005228D6823F4005343EA0533064DA84283
:1025300002BF4D6924F4804444EA85144460C261BA
:102540004A680264036230BD000001407047704772
:10255000082910D004D841B1042909D000207047BF
:102560000C29FBD10368186C70470368586B7047DF
:102570000368986B70470368D86B70477047704763
:1025800070477047036870B5DD681E69B10704467F
:102590000DD5AA070BD56FF002021A61012202774E
:1025A0009B699B0769D0FEF79BFE00232377710789
:1025B00010D56A070ED523686FF004021A61022253
:1025C00022779B6913F4407F20465CD0FEF788FE9B
:1025D0000023237733070FD528070DD523686FF025
:1025E00008021A6104222277DB699907204650D03D
:1025F000FEF776FE00232377F20610D5EB060ED504
:1026000023686FF010021A6108222277DB6913F445
:10261000407F204643D0FEF763FE00232377F00778
:1026200008D5E90706D523686FF001021A61204634
:10263000FFF7A4FF320608D52B0606D523686FF0F6
:1026400080021A61204600F00CFC700608D569066D
:1026500006D523686FF040021A612046FFF791FF0C
:10266000B20622D5AB0620D523686FF020022046A3
:102670001A61BDE8704000F0F3BBFFF780FF204611
:10268000FFF77EFF91E7FFF77AFF2046FFF778FF1D
:102690009EE7FFF774FF2046FFF772FFAAE7FFF7F8
:1026A0006EFF2046FFF76CFFB7E770BD274A03684F
:1026B00090420ED0B0F1804F0BD0A2F57C429042F8
:1026C00007D002F58062904203D002F5806290420A
:1026D00015D14A6823F0700313431C4A904219D065
:1026E000B0F1804F16D0A2F57C42904212D002F594
:1026F000806290420ED002F5806290420AD0144A65
:10270000904207D002F58062904203D002F58062C9
:10271000904203D1CA6823F4407313434A6923F0FB
:102720008003134303608B68C3620B688362074BAB
:10273000984204BF0B690363012343610369DB070C
:1027400042BF036923F001030361704700000140A9
:102750000040014010B5044630B390F83D3003F01E
:10276000FF021BB980F83C20FEF7FAFB0223206829
:1027700084F83D30211DFFF799FF012384F846308E
:10278000002084F83E3084F83F3084F8403084F8EC
:10279000413084F8423084F8433084F8443084F87F
:1027A000453084F83D3010BD0120FCE710B50446EB
:1027B00030B390F83D3003F0FF021BB980F83C20A5
:1027C000FFF7C4FE0223206884F83D30211DFFF787
:1027D0006DFF012384F84630002084F83E3084F8F1
:1027E0003F3084F8403084F8413084F8423084F837
:1027F000433084F8443084F8453084F83D3010BDCF
:102800000120FCE710B5044630B390F83D3003F0EA
:10281000FF021BB980F83C20FFF799FE02232068D5
:1028200084F83D30211DFFF741FF012384F8463035
:10283000002084F83E3084F83F3084F8403084F83B
:10284000413084F8423084F8433084F8443084F8CE
:10285000453084F83D3010BD0120FCE7036A026A70
:1028600022F01002026270B5446882690D6822F499
:10287000E64242EA05228D6823F0200343EA05136D
:102880000B4DA8420DD1CD6823F0800343EA051318
:10289000D1E9055624F44064354323F0400344EA6B
:1028A0008504446082614A688263036270BD00BF30
:1028B0000000014038B590F83C30012B04464FD061
:1028C0000120082A84F83C003AD006D8BAB1042A7C
:1028D00026D0002384F83C3038BD0C2AF9D120687A
:1028E000FFF712FEC3690A6943F40063C361C36959
:1028F00023F48063C361C36943EA02232EE02068A6
:10290000FFF7B0FD83690A6943F0080383618369B7
:1029100023F0040383618369134383610020D8E7B4
:102920002068FFF79BFF83690A6943F400638361B2
:10293000836923F480638361836943EA0223ECE7BC
:102940002068FFF7B7FDC3690A6943F00803C36154
:10295000C36923F00403C361C3691343C361DDE7A3
:102960000220B9E770B5056A046A164E24F0010426
:102970000462B042846921D0B0F1804F1ED0A6F528
:102980007C46B0421AD006F58066B04216D006F5F5
:102990008066B04212D006F59A36B0420ED044F0AE
:1029A00001021B0122F0F002DBB2134301F00A0125
:1029B00025F00A0211438361016270BD24F0030413
:1029C0002243EEE700000140F8B590F83C30012BBF
:1029D00005460C4600F08980012085F83C0092B93C
:1029E0002868CB68D1E90012FFF7BCFF8369A268B1
:1029F00023F00C0383618369134383610020002368
:102A000085F83C30F8BD042A24D12B681E6A186A68
:102A100020F01000D1E90027C9681862986920F4F5
:102A2000407040EA0720090320F4704089B2120187
:102A3000014302F0A00226F0A000024399611A624D
:102A40009A69A16822F440629A619A6942EA012275
:102A50009A61D3E7082A22D12B681E6A1F6A27F4DD
:102A60008077D1E90020C9681F62DF6927F003077A
:102A70003843090120F0F000C9B21202014302F408
:102A8000206226F420600243D9611A62DA69A168E3
:102A900022F00C02DA61DA690A43DA61AEE70C2A45
:102AA000ADD12B681E6A186A20F48050D1E9002746
:102AB000C9681862D86920F4407040EA0720090309
:102AC00020F4704089B21203014302F4204226F43C
:102AD00020400243D9611A62DA69A16822F4406297
:102AE000DA61DA6942EA0122D7E702208AE710B503
:102AF00084680A4324F47F4442EA0322224382602A
:102B000010BD38B590F83C30012B04464FF0020060
:102B100000F08E8084F83D000122206884F83C207B
:102B2000836823F47F4323F0770383600B68602B73
:102B30004FD032D8402B64D016D8202B0DD00AD8D5
:102B400033F0100109D0012384F83D30002384F8CC
:102B50003C30104638BD302BF5D1826822F070022F
:102B6000134343F0070328E0502BECD14A68CD68AB
:102B7000016A036A23F001030362836921F00A01F9
:102B800023F0F00343EA05130A438361026283687A
:102B900023F0700343F057030FE0B3F5805F0DD0CF
:102BA000B3F5005F0CD0702BCDD1CB68D1E90121FA
:102BB000FFF79DFF836843F0770383600022C2E73D
:102BC000CB68D1E90121FFF792FF836843F480438A
:102BD000F3E7036A026A4D68C96822F010020262D4
:102BE000826923F0A00322F4704243EA051342EA0B
:102BF000013282610362836823F0700343F067034C
:102C0000DBE74A68CD68016A036A23F001030362C7
:102C1000836921F00A0123F0F00343EA05130A4314
:102C200083610262836823F0700343F04703C4E7C3
:102C300002468EE7036A01F01F0110B501248C40A3
:102C400023EA04030362036A8A401A43026210BD46
:102C500008B529B990F83E30012B1DD001202EE097
:102C6000042907D190F83F30012BF7D1022380F8D7
:102C70003F3014E0082907D190F84030012BEDD106
:102C8000022380F840300AE090F84130012BE5D172
:102C9000022380F8413002E0022380F83E300068D1
:102CA0000122FFF7C7FF134B984209D0B0F1804FC4
:102CB0000BD1836803F00703062B15D1002008BD54
:102CC000436C43F400434364F3E70B4B9842F0D06A
:102CD00003F580639842ECD003F580639842E8D016
:102CE00003F59A339842E4D0036843F0010303608C
:102CF000E4E700BF0000014000040040FFF7A8BF68
:102D000008B5002936D190F83E2090F84230D2B272
:102D1000012ADBB26AD1012B68D1022300293FD1FD
:102D2000026880F83E3080F84230D36843F00203F6
:102D3000D36000680122FFF77DFF2D4B984212D02F
:102D4000B0F1804F0FD0A3F57C4398420BD003F530
:102D50008063984207D003F58063984203D003F55F
:102D60009A3398423DD1836803F00703062B38D18C
:102D7000002008BD042905D190F83F2090F8433089
:102D8000D2B2C5E708290BBF90F8402090F8412047
:102D900090F8443090F845300CBFD2B2D2B2B7E7C9
:102DA000042908D1026880F83F3080F84330D368A6
:102DB00043F00403BCE7082908D1026880F84030DA
:102DC00080F84430D36843F00803B1E70C2980F859
:102DD000413080F8453009D10268D36843F01003D0
:102DE000A6E7036843F001030360C1E70120C0E7E1
:102DF0000000014030B590F83C30012B02464FF006
:102E000002002AD0136882F83D005C680D6898685B
:102E100024F070042C435C60104CA34212D0B3F138
:102E2000804F0FD0A4F57C44A3420BD004F58064FE
:102E3000A34207D004F58064A34203D004F59A347A
:102E4000A34204D1496820F0800001439960012326
:102E5000002082F83D3082F83C0030BD0000014087
:102E600070477047026802F10C0353E8003F23F4F7
:102E700090730C3242E8003102680029F2D102F16D
:102E8000140353E8003F23F0010302F1140C4CE853
:102E900000310029F3D1036B012B0BD102F10C039C
:102EA00053E8003F23F0100302F10C0C4CE8003112
:102EB0000029F3D1202380F84230002303637047B8
:102EC0000268C16838B5136923F440530B4313619A
:102ED000054683680069D168034368690343E8696C
:102EE00021F4164121F00C0103430B43D3605369D5
:102EF000A96923F440730B4353611F4B9A4203D0DB
:102F000003F580639A4224D1FFF79CFAEA691921FC
:102F1000B2F5004FD5E90043A0FB01011CD1DA183E
:102F20004FF0000545EB0503FDF7B8FC6422B0FB4C
:102F3000F2F102FB1103DB003233B3FBF2F303F0D7
:102F400007025B0002EB011203F4F8731344A36061
:102F500038BDFFF767FAD9E79A009B0FFDF79EFC93
:102F60006422B0FBF2F102FB11031B013233B3FB0D
:102F7000F2F303EB0113EAE700100140F7B5054651
:102F80000C4617461E462A68136834EA030301D12B
:102F9000002021E0701CF7D0FEF710FCC01B864219
:102FA0001CD3DEB12B68DA685107ECD5802CEAD04F
:102FB000402CE8D01A681207E5D5002401941A685D
:102FC00001925B6801932846019BFFF74BFF0823A2
:102FD0006B6485F84040012003B0F0BD0320FBE79F
:102FE00010B5044648B390F8413003F0FF021BB916
:102FF00080F84020FEF79AF82268242384F84130B4
:10300000D36823F40053D3602046FFF759FF2368A9
:103010001A6922F490421A615A6922F02A025A610E
:10302000DA6842F40052DA6000202023606484F8F9
:10303000413084F84230606310BD0120FCE72DE987
:10304000F843984690F84130202B04460E46174628
:103050003FD100293FD0002A3DD0212300254564DF
:1030600080F84130FEF7AAFBA368A784B3F5805F20
:103070008146E78403D123690BB935461E46E38CAC
:103080009BB253B943464A4640212046FFF776FF9C
:10309000202350B984F841300AE043464A46802153
:1030A0002046FFF76BFF28B1202384F8413003202E
:1030B000BDE8F88322684EB935F8023BC3F3080334
:1030C0005360E18C013989B2E184D8E716F8013BFD
:1030D000F6E70220ECE70120EAE700000EB400B5B5
:1030E0009CB01DAB029006906FF00041094807911B
:1030F0000491094953F8042B05910068019302A932
:1031000000F094F9029B00221A701CB05DF804EBE9
:1031100003B070470C0000200802FFFF0244034682
:10312000934200D1704703F8011BF9E7014B18687F
:10313000704700BF0C00002070B50D4D0D4C641B96
:10314000A4100026A64209D10B4D0C4C00F066FCE1
:10315000641BA4100026A64205D170BD55F8043B9F
:1031600098470136EEE755F8043B98470136F2E7F9
:10317000E03A0008E03A0008E03A0008E43A0008C3
:103180007047704738B50546002941D051F8043CD6
:103190000C1F002BB8BFE41800F0E0F81D4A1368BC
:1031A00033B9636014602846BDE8384000F0DCB8ED
:1031B000A34208D9206821188B4201BF19685B68B7
:1031C00009182160EDE71A465B680BB1A342FAD9F2
:1031D00011685018A0420BD1206801445018834256
:1031E0001160E0D118685B68536008441060DAE74A
:1031F00002D90C232B60D6E7206821188B4204BF2C
:1032000019685B68636004BF091821605460CAE7ED
:1032100038BD00BF3403002070B50F4E0C46316836
:10322000054611B900F0A6FB30602146284600F0A3
:10323000A1FB431C03D14FF0FF34204670BDC41CDA
:1032400024F00304A042F8D0211A284600F092FB93
:103250000130F2D1EFE700BF300300202DE9F84341
:10326000CD1C25F0030508350C2D38BF0C25002D8D
:10327000064601DBA94204D90C2333600020BDE8D7
:10328000F883DFF8D48000F069F8D8F800301C46E5
:1032900044BB29463046FFF7BFFF431C044658D1C4
:1032A000D8F800402746002F43D1002C4BD023688C
:1032B0003946304604EB030900F05CFB814542D1FE
:1032C00021686D1A29463046FFF7A6FF01303AD033
:1032D00023682B442360D8F800305A6862BBC8F8D2
:1032E00000700FE02268521B20D40B2A17D96119F5
:1032F000A342256018BF5960636808BFC8F8001072
:1033000062514B60304600F02FF804F10B00231D92
:1033100020F00700C21A1CBF1B1AA350AFE7626857
:10332000A3420CBFC8F800205A60EBE7234664684C
:10333000AEE73C467F68B6E71A465B68A342FBD11E
:1033400000235360DEE70C233360304600F00CF8B6
:1033500094E70560D6E700BF340300200148FFF77B
:103360000FBF00BF2C0300200148FFF70ABF00BFBA
:103370002C0300202DE9F0478E681F46BE420B68E3
:1033800082460C4690462DD8B1F90C2012F4906F6D
:1033900026D06569096905EB4505A3EB010905EB35
:1033A000D5757B1C4B446D109D4238BF1D4653059F
:1033B00027D52946FFF752FF064660B321694A46E2
:1033C00000F0E8FAA38923F4906343F08003A3811B
:1033D000266165614E44A5EB09052660A5603E4661
:1033E000BE4200D93E4620683246414600F0A8FA67
:1033F000A3689B1BA3602368334423600020BDE8BF
:10340000F0872A4600F0D4FA06460028E0D1216968
:103410005046FFF7B7FE0C23CAF80030A38943F0EB
:103420004003A3814FF0FF30E9E700002DE9F04FA2
:1034300098468B891B069DB007460D46144610D54D
:103440000B6973B94021FFF709FF2860286130B983
:103450000C233B604FF0FF301DB0BDE8F08F4023E0
:103460006B610023099320238DF82930CDF80C805F
:103470003023DFF89C818DF82A304FF00109234674
:103480009A4613F8012B0AB1252AF9D1BAEB040B9D
:103490000BD05B46224629463846FFF76BFF0130CA
:1034A00000F0A780099A5A4409929AF80030002B3C
:1034B00000F09F8000234FF0FF32CDE905230AF191
:1034C000010A049307938DF853301A93544605224A
:1034D00014F8011B4E48FCF78BFE049AD8B9D006AD
:1034E00044BF20238DF85330110744BF2B238DF8A0
:1034F00053309AF800302A2B15D0079A54460020F2
:103500004FF00A0C214611F8013B303B092B4BD9F7
:10351000B0B1079214E0A0EB080309FA03F31343D8
:103520000493A246D2E7039B191D1B680391002B4D
:10353000BBBF5B4242F0020207930793B8BF0492FD
:1035400023782E2B0AD163782A2B32D1039B1A1DA4
:103550001B68039243EAE37302340593DFF8C0A0CB
:10356000217803225046FCF743FE38B1049BA0EBC0
:103570000A004022824013430134049314F8011BD3
:1035800024488DF828100622FCF732FE002836D099
:10359000214B1BBB039B073323F007030833039323
:1035A000099B334409936AE70CFB02320C46012065
:1035B000A8E700230134059319464FF00A0C204672
:1035C00010F8012B303A092A03D9002BC6D00591F7
:1035D000C4E70CFB012104460123F0E703AB009391
:1035E0002A460E4B04A93846AFF30080421C06461B
:1035F000D6D1AB895B063FF52DAF09982CE703AB1D
:1036000000932A46054B04A9384600F079F8EDE707
:10361000A43A0008AE3A0008000000007533000824
:10362000AA3A00082DE9F047164698468A680B69C1
:10363000DDF820909342B8BF1346336091F84320E1
:1036400007460C460AB1013333602368990642BF2E
:10365000336802333360256815F0060506D104F19E
:10366000190AE36832689B1AAB4226DC94F84330AF
:103670002268003B18BF012392062BD404F14302B9
:1036800041463846C84701301ED02368226903F0FE
:103690000603042B02BFE5683368ED1AA3680CBF6C
:1036A00025EAE57500259342C4BF9B1AED18002654
:1036B0001A34B5421AD1002008E00123524641468F
:1036C0003846C847013003D14FF0FF30BDE8F087DE
:1036D0000135C6E7E1185A1C302081F84300224426
:1036E00094F8451082F843100233C7E701232246BD
:1036F00041463846C8470130E6D00136D9E70000D8
:103700002DE9FF470F7E0C9E782F914680460C4690
:103710009A4601F1430207D8622F0AD8002F00F021
:10372000D280582F00F0B98004F1420684F842702C
:103730003AE0A7F16303152BF6D801A151F823F065
:1037400099370008AD3700082937000829370008E5
:103750002937000829370008AD3700082937000845
:10376000293700082937000829370008AD38000834
:10377000D7370008673800082937000829370008BC
:10378000CF38000829370008D73700082937000844
:10379000293700086F38000833681A1D1B6832602B
:1037A00004F1420684F8423001239DE0336820682A
:1037B000191D3160060601D51D6803E04506FBD5DD
:1037C000B3F90050002D03DA2D236D4284F8433005
:1037D00059480A2311E021683368080653F8045B4E
:1037E00002D4490648BFADB26F2F5348336014BFAF
:1037F0000A230823002184F843106668A660002E7F
:10380000A2BF216821F0040121600DB9002E4BD028
:103810001646B5FBF3F103FB1157C75D06F8017DB2
:103820002F46BB420D46F4D9082B0BD12368DF0786
:1038300008D5236961689942DEBF302306F8013C50
:1038400006F1FF36921B2261CDF800A04B4603AA79
:1038500021464046FFF7E6FE01304AD14FF0FF30E7
:1038600004B0BDE8F087236843F0200323603348A9
:10387000782784F84570236831681F0651F8045B87
:1038800002D45F0648BFADB23160D90744BF43F0F0
:10389000200323601DB11023ACE72748E9E7236824
:1038A00023F020032360F6E71646BDE7336825685A
:1038B0006169181D30602E061B6801D5196002E091
:1038C0006806FBD51980002323611646BCE73368E0
:1038D0001A1D32601E68626800213046FCF788FCC1
:1038E00008B1801B606063682361002384F8433063
:1038F000AAE72369324649464046D0470130ADD059
:1039000023689B0713D4E068039B9842B8BF18460E
:10391000A6E70123324649464046D04701309DD0B4
:103920000135E36803995B1AAB42F2DCEBE7002553
:1039300004F11906F5E700BFB53A0008C63A0008D9
:10394000884210B501EB020402D98442234607D80D
:10395000431EA14208D011F8012B03F8012FF8E70C
:10396000024401468A4200D110BD13F8014D02F80D
:10397000014DF7E738B5064D0023044608462B6095
:10398000FDF776FA431C02D12B6803B1236038BDE2
:10399000280300200A44914200F1FF3300D1704710
:1039A00010B511F8014B03F8014F9142F9D110BD48
:1039B0002DE9F041804615460C4621B9BDE8F0419D
:1039C0001146FFF74BBC2AB9FFF7DCFB0024204669
:1039D000BDE8F08100F01AF88542064602D8B5EB42
:1039E000500FF4D829464046FFF738FC0746002818
:1039F000ECD0B5422A46214628BF3246FFF7CAFF1F
:103A000021464046FFF7BEFB3C46E0E751F8043C48
:103A1000181F002BBCBF0B58C0187047F8B500BF6B
:103A2000F8BC08BC9E467047F8B500BFF8BC08BC9F
:043A30009E467047F7
:103A3400416C696D656E746163696F6E204F4B0AEA
:103A44000000000000010203040000000000000068
:103A5400000102030406070809256400416E677526
:103A64006C6F3A20004D65646964613A2000636DAF
:103A740000494E4943494F0A00414C41524D4100CF
:103A84004F424A45544F00414C41524D41204F4210
:103A94004A45544F2044455445435441444F0A0039
:103AA400232D302B2000686C4C0065666745464723
:103AB40000303132333435363738394142434445A6
:103AC4004600303132333435363738396162636415
:043AD4006566000023
:083AD80008C7FF7F0100000098
:043AE000C501000814
:043AE400A101000834
:103AE8000024F40001000000100000001000002075
:103AF80000000000F001002058020020C002002051
:103B080000000000000000000000000000000000AD
:103B1800000000000000000000000000000000009D
:103B2800000000000000000000000000000000008D
:0C3B380000000000000000000000000081
:040000050800119945
:00000001FF
